rake :020000040800F2
:100000000050002069010008A9030008AD030008A2
:10001000B1030008B5030008B903000800000000A0
:10002000000000000000000000000000BD03000808
:10003000C103000800000000C5030008C903000850
:10004000B1010008B1010008B1010008B1010008C8
:10005000B1010008B1010008B1010008B1010008B8
:10006000B1010008B1010008B1010008B1010008A8
:10007000B1010008B1010008B1010008B101000898
:10008000B1010008B1010008B1010008B101000888
:10009000B1010008B1010008B1010008B101000878
:1000A000B1010008B1010008B1010008B101000868
:1000B000B1010008B1010008B1010008B101000858
:1000C000B1010008B1010008B1010008B101000848
:1000D000B1010008B1010008B1010008B101000838
:1000E000B1010008B1010008B101000800000000E2
:1000F0000000000000000000000000000000000000
:0C01000000000000000000005FF808F1A3
:10010C0010B5054C237833B9044B13B10448AFF345
:10011C0000800123237010BD0400002000000000AB
:10012C0094120008084B10B51BB108490848AFF3EE
:10013C0000800848036803B910BD074B002BFBD0A7
:10014C00BDE81040184700BF000000000800002068
:10015C00941200080400002000000000002103E0BD
:10016C000B4B5B58435004310A480B4B42189A42D4
:10017C00F6D30A4A02E0002342F8043B084B9A42A9
:10018C00F9D300F021F901F059F800F087F8704725
:10019C0018130008000000200400002004000020B8
:1001AC0064000020FEE7000082B00A4B9A6942F01E
:1001BC0020029A619A6902F020020092009A9A69D0
:1001CC0042F004029A619B6903F004030193019BC2
:1001DC0002B0704700100240FEE700BF08B50B48A4
:1001EC000B4B03604FF4E133436000238360C36027
:1001FC0003610C2242618361C36100F0EFFF18B10F
:10020C00AE210448FFF7E8FF08BD00BF2400002022
:10021C0000380140D812000800B591B001220692B6
:10022C004FF480330793002108910A9202220D9219
:10023C000E934FF4E0130F9306A800F089FA18B14F
:10024C0083211448FFF7C8FF0F2301930221029169
:10025C00002303934FF480620492059301A800F0ED
:10026C00B7FD18B191210B48FFF7B6FF00F0A2FEC5
:10027C00094BA3FB0030800900F052F9042000F078
:10028C0065F9002211464FF0FF3000F017F911B05C
:10029C005DF804FBD8120008D34D621008B500F0CD
:1002AC00CDF8FFF7B9FFFFF77FFFFFF797FFFEE7EA
:1002BC0000B583B0204B9A6942F001029A619B69A8
:1002CC0003F001030193019B032000F0E5F80022E9
:1002DC0011466FF00B0000F0F1F8002211466FF0A0
:1002EC000A0000F0EBF8002211466FF0090000F054
:1002FC00E5F8002211466FF0040000F0DFF8002250
:10030C0011466FF0030000F0D9F8002211466FF08F
:10031C00010000F0D3F8002211464FF0FF3000F03E
:10032C00CDF8064A536823F0E06343F00073536042
:10033C0003B05DF804FB00BF001002400000014058
:10034C000268144B9A4224D110B586B003F5584379
:10035C009A6942F480429A619B6903F48043019349
:10036C00019B4FF400730293022303930323059321
:10037C00094C02A9204600F0FFF84FF48063029369
:10038C0000230393049302A9204600F0F5F806B06D
:10039C0010BD70470038014000080140704700BF95
:1003AC00FEE700BFFEE700BFFEE700BFFEE700BFB1
:1003BC00704700BF704700BF704700BF08B500F022
:1003CC004FF800F0D5F808BD0F4B1A6842F0010247
:1003DC001A6059680D4A0A405A601A6822F08472F1
:1003EC0022F480321A601A6822F480221A605A6849
:1003FC0022F4FE025A604FF41F029A604FF0006222
:10040C00034B9A60704700BF001002400000FFF8D9
:10041C0000ED00E010B5044600F0CCFD064BA3FB4C
:10042C000030800900F07CF8002221464FF0FF30AC
:10043C0000F044F8002010BDD34D621008B5074AF7
:10044C00136843F010031360032000F025F800201C
:10045C00FFF7E0FFFFF72CFF002008BD0020024053
:10046C00024A136801331360704700BF200000205C
:10047C00014B1868704700BF2000002010B582B0F7
:10048C000190FFF7F5FF0446FFF7F2FF001B019BFD
:10049C009842F9D302B010BD074AD36823F4E06345
:1004AC001B041B0C000200F4E060184340F0BF601A
:1004BC0040F40030D060704700ED00E030B4164BD3
:1004CC00DB68C3F30223C3F10704042C28BF042404
:1004DC001D1D062D01D9DD1E00E00025012303FAA8
:1004EC0004F4013C2140A940AB40013B1A400A43B3
:1004FC00002806DA00F00F001201D2B2074B1A5492
:10050C0007E01201D2B200F1604000F5614080F8C2
:10051C00002330BC704700BF00ED00E014ED00E09C
:10052C000138B0F1807F0AD2064B5860F021064AA0
:10053C0082F823100020986007221A60704701206F
:10054C00704700BF10E000E000ED00E0042805D18A
:10055C00054A136843F0040313607047024A13689A
:10056C0023F004031360704710E000E0704700BFF5
:10057C0008B5FFF7FBFF08BDF0B583B00026344685
:10058C00D5E00122A2400B6813409A4240F0CE8085
:10059C004D68122D2DD00BD8022D27D003D85DB36A
:1005AC00012D1ED035E0032D30D0112D1BD030E0A5
:1005BC00614FBD4220D008D8A7F58017BD421BD093
:1005CC0007F58037BD4224D116E05C4FBD4213D0F5
:1005DC0007F58037BD420FD0A7F58017BD4218D163
:1005EC000AE0CE6815E0CE68043612E0CE68083614
:1005FC000FE0CE680C360CE08D684DB1012D02D1A8
:10060C000261082605E04261082602E0002600E0AF
:10061C000426FF2B01D8864601E000F1040EFF2BC7
:10062C0001D8A20002E0A4F108029200DEF80070EA
:10063C000F25954027EA050506FA02F22A43CEF863
:10064C0000204A6812F0805F70D03D4A956945F0F1
:10065C0001059561926902F001020192019AA708C5
:10066C00BD1C384A52F8255004F0030292004FF09A
:10067C000F0E0EFA02FE25EA0E0E334DA8420DD0D7
:10068C0005F58065A8420BD005F58065A84209D018
:10069C0005F58065A84207D1032506E0002504E096
:1006AC00012502E0022500E0042505FA02F24EEADB
:1006BC0002020237234D45F827204A6812F4803F86
:1006CC0005D005F580652A681A432A6004E01F4DA1
:1006DC002A6822EA03022A604A6812F4003F04D016
:1006EC001A4D6A681A436A6004E0184D6A6822EA77
:1006FC0003026A604A6812F4801F04D0134DAA6882
:10070C001A43AA6004E0114DAA6822EA0302AA6007
:10071C004A6812F4001F04D00C4DEA681343EB60D6
:10072C0004E00A4DEA6822EA0303EB6001340F2C63
:10073C007FF627AF03B0F0BD000021100000311090
:10074C00001002400000014000080140000401407C
:10075C0030B583B00446036813F0010F00F09680A7
:10076C00B24B5B6803F00C03042B0AD0AF4B5B68F5
:10077C0003F00C03082B1BD1AC4B5B6813F4803FCC
:10078C0016D04FF4003393FAA3F3A84B1A684FF426
:10079C00003393FAA3F3B3FA83F303F01F0322FAA3
:1007AC0003F313F0010F71D06368002B6ED1A0E23C
:1007BC006368B3F5803F05D19C4A136843F48033DA
:1007CC00136026E063B903F1804303F504331A6820
:1007DC0022F480321A601A6822F480221A6018E01F
:1007EC00B3F5A02F0CD103F18043A3F53C331A6869
:1007FC0042F480221A601A6842F480321A6008E0CF
:10080C008A4B1A6822F480321A601A6822F4802209
:10081C001A606368EBB1FFF72BFE054605E0FFF7A6
:10082C0027FE401B642800F266824FF4003393FAD3
:10083C00A3F37E4B1A684FF4003393FAA3F3B3FA85
:10084C0083F303F01F0322FA03F313F0010FE6D036
:10085C001CE0FFF70DFE054605E0FFF709FE401B07
:10086C00642800F24A824FF4003393FAA3F36F4BDF
:10087C001A684FF4003393FAA3F3B3FA83F303F03B
:10088C001F0322FA03F313F0010FE6D1236813F0D0
:10089C00020F00F09080654B5B6813F00C0F0AD0D0
:1008AC00624B5B6803F00C03082B27D15F4B5B6832
:1008BC0013F4803F22D1022393FAA3F35B4B1A6803
:1008CC00022393FAA3F3B3FA83F303F01F0322FA80
:1008DC0003F313F0010F03D02369012B40F00F82B7
:1008EC005248036823F0F8016369F82292FAA2F2E5
:1008FC00B2FA82F293400B4303605CE023699BB332
:10090C00012292FAA2F3B3FA83F39B0003F184431E
:10091C0003F584031A60FFF7ABFD054605E0FFF70E
:10092C00A7FD401B022800F2EC81022393FAA3F3EB
:10093C003E4B1A68022393FAA3F3B3FA83F303F042
:10094C001F0322FA03F313F0010FE8D037480368B2
:10095C0023F0F8016369F82292FAA2F2B2FA82F259
:10096C0093400B43036026E0012393FAA3F3B3FAFD
:10097C0083F39B0003F1844303F5840300221A6084
:10098C00FFF776FD054605E0FFF772FD401B0228D8
:10099C0000F2B981022393FAA3F3244B1A680223C1
:1009AC0093FAA3F3B3FA83F303F01F0322FA03F3CE
:1009BC0013F0010FE8D1236813F0080F52D0A3698C
:1009CC003BB3012292FAA2F3B3FA83F3184941F82C
:1009DC002320FFF74DFD054605E0FFF749FD401BC1
:1009EC00022800F29281022393FAA3F293FAA3F263
:1009FC000E4A526A93FAA3F3B3FA83F303F01F037C
:100A0C0022FA03F313F0010FE7D00120FFF736FDB4
:100A1C0028E0012393FAA3F3B3FA83F30021044AE9
:100A2C0042F82310FFF724FD054609E000100240B0
:100A3C0080044242FFF71CFD401B022800F2678134
:100A4C00022393FAA3F293FAA3F2BA4A526A93FAE4
:100A5C00A3F3B3FA83F303F01F0322FA03F313F0A7
:100A6C00010FE7D1236813F0040F00F0A180B14B04
:100A7C00DA6942F08052DA61DB6903F0805301934A
:100A8C00019BAD4A136843F480731360FFF7F0FCCD
:100A9C00054605E0FFF7ECFC401B642800F23981A9
:100AAC00A54B1B6813F4807FF4D0E368012B05D1B0
:100ABC00A04A136A43F00103136222E063B903F105
:100ACC00804303F504331A6A22F001021A621A6A8F
:100ADC0022F004021A6214E0052B09D1954B1A6A14
:100AEC0042F004021A621A6A42F001021A6208E029
:100AFC00904B1A6A22F001021A621A6A22F004025E
:100B0C001A62E36853B3FFF7B3FC054607E0FFF73F
:100B1C00AFFC401B41F28833984200F2FC80022368
:100B2C0093FAA3F293FAA3F3B3FA83F35B0943F0BA
:100B3C000203DBB2022B02D17E4B1A6A01E07D4B21
:100B4C005A6A022393FAA3F3B3FA83F303F01F0355
:100B5C0022FA03F313F0010FD9D029E0FFF788FC38
:100B6C00054607E0FFF784FC401B41F288339842AE
:100B7C0000F2D380022393FAA3F293FAA3F3B3FA0D
:100B8C0083F35B0943F00203DBB2022B02D1694B06
:100B9C001A6A01E0674B5A6A022393FAA3F3B3FA79
:100BAC0083F303F01F0322FA03F313F0010FD9D1DF
:100BBC00E369002B00F0B3805E4A526802F00C022D
:100BCC00082A00F0AE80022B68D14FF0807393FAA4
:100BDC00A3F3B3FA83F39B0003F1844303F584037B
:100BEC0000221A60FFF744FC054605E0FFF740FCC5
:100BFC00401B022800F297804FF0007393FAA3F386
:100C0C004C4B1A684FF0007393FAA3F3B3FA83F3C7
:100C1C0003F01F0322FA03F313F0010FE6D1236A4A
:100C2C00B3F5803F06D143494B6823F40032A368E7
:100C3C0013434B603F48436823F47411236A626A80
:100C4C0013430B4343604FF0807393FAA3F3B3FA4F
:100C5C0083F39B0003F1844303F5840301221A60A0
:100C6C00FFF706FC044604E0FFF702FC001B022819
:100C7C005BD84FF0007393FAA3F32E4B1A684FF026
:100C8C00007393FAA3F3B3FA83F303F01F0322FA6E
:100C9C0003F313F0010FE7D0002049E04FF080730D
:100CAC0093FAA3F3B3FA83F39B0003F1844303F5A4
:100CBC00840300221A60FFF7DBFB044604E0FFF715
:100CCC00D7FB001B022832D84FF0007393FAA3F322
:100CDC00184B1A684FF0007393FAA3F3B3FA83F32B
:100CEC0003F01F0322FA03F313F0010FE7D10020E6
:100CFC001EE001201CE003201AE0032018E0012074
:100D0C0016E0032014E0032012E0032010E003207F
:100D1C000EE003200CE003200AE0032008E0002092
:100D2C0006E0012004E0032002E0032000E00320A1
:100D3C0003B030BD001002400070004030B486B0EB
:100D4C001F4D02AC28686968AA68EB680FC42B8A2F
:100D5C00ADF804301B4B5B6803F00C02082A2AD157
:100D6C0003F470114FF4701292FAA2F2B2FA82F2FA
:100D7C0021FA02F206A90A4412F8102C13F4803F4F
:100D8C0015D0104B5B6803F400314FF4003393FA29
:100D9C00A3F3B3FA83F321FA03F306A90B4413F874
:100DAC00140C094BB3FBF0F000FB02F004E0074815
:100DBC0000FB02F000E0044806B030BC704700BFF6
:100DCC00C41200080010024000127A0000093D0015
:100DDC0070B5744B1B6803F007038B420BD2714A3E
:100DEC00136823F007030B431360136803F0070326
:100DFC00994240F0C680036813F0020F06D06A4C8B
:100E0C00636823F0F0028368134363600D46044665
:100E1C00036813F0010F75D04268012A13D14FF407
:100E2C00003393FAA3F3604B19684FF4003393FA31
:100E3C00A3F3B3FA83F303F01F0321FA03F313F0C4
:100E4C00010F27D19FE0022A13D14FF0007393FAC0
:100E5C00A3F3554B19684FF0007393FAA3F3B3FA4D
:100E6C0083F303F01F0321FA03F313F0010F11D1E5
:100E7C008BE0022393FAA3F34B4B1968022393FAEA
:100E8C00A3F3B3FA83F303F01F0321FA03F313F074
:100E9C00010F7CD044494B6823F0030313434B6090
:100EAC00FFF7E6FA06466368012B0ED106E0FFF762
:100EBC00DFFA801B41F2883398426AD83A4B5B6860
:100ECC0003F00C03042BF2D11CE0022B15D106E02D
:100EDC00FFF7CEFA801B41F2883398425BD8324B35
:100EEC005B6803F00C03082BF2D10BE0FFF7C0FAA0
:100EFC00801B41F2883398424FD82B4B5B6813F020
:100F0C000C0FF3D1274B1B6803F007039D420AD249
:100F1C00244A136823F007032B431360136803F070
:100F2C0007039D423BD1236813F0040F06D01E49E2
:100F3C004B6823F4E062E36813434B60236813F0BF
:100F4C00080F07D0184A536823F46053216943EA09
:100F5C00C1035360FFF7F2FE134B5B6803F0F00222
:100F6C00F02393FAA3F3B3FA83F322FA03F30F4AB1
:100F7C00D35CD8400E4B18600020FFF74BFA0020D2
:100F8C0070BD012070BD012070BD012070BD01201D
:100F9C0070BD032070BD032070BD032070BD012007
:100FAC0070BD00BF0020024000100240AC120008CF
:100FBC0000000020014B1868704700BF00000020A3
:100FCC0008B5FFF7F7FF084B5B6803F4E0624FF4DA
:100FDC00E06393FAA3F3B3FA83F322FA03F3034A1D
:100FEC00D35CD84008BD00BF00100240BC12000802
:100FFC0008B5FFF7DFFF084B5B6803F460524FF452
:10100C00605393FAA3F3B3FA83F322FA03F3034A7C
:10101C00D35CD84008BD00BF00100240BC120008D1
:10102C002DE9F843814601680B6923F44052C368EB
:10103C0013430B61816803691943436919430068C1
:10104C00C26822F4B05323F00C030B43C360D9F8ED
:10105C0000104B6923F44072D9F8183013434B61DC
:10106C00D9F800505B4B9D4259D1FFF7C1FF00EB03
:10107C00800000EB8000D9F80440A400B0FBF4F42D
:10108C00554EA6FB043464092401FFF7B1FF00EBB5
:10109C00800000EB8000D9F804309B00B0FBF3F724
:1010AC00FFF7A6FF00EB800000EB8000D9F80430BE
:1010BC009B00B0FBF3F3A6FB03235B094FF0640822
:1010CC0008FB13731B013233A6FB03235B0903F0EC
:1010DC00F0031C44FFF78CFF00EB800000EB80005A
:1010EC00D9F804309B00B0FBF3F7FFF781FF00EB5E
:1010FC00800000EB8000D9F804309B00B0FBF3F3C8
:10110C00A6FB03235B0908FB13731B013233A6FBFD
:10111C000323C3F343131C44AC60BDE8F883FFF70F
:10112C004FFF00EB800000EB8000D9F80440A400D6
:10113C00B0FBF4F4284EA6FB043464092401FFF739
:10114C003FFF00EB800000EB8000D9F804309B00DF
:10115C00B0FBF3F7FFF734FF00EB800000EB8000EF
:10116C00D9F804309B00B0FBF3F3A6FB03235B0917
:10117C004FF0640808FB13731B013233A6FB0323E7
:10118C005B0903F0F0031C44FFF71AFF00EB80002F
:10119C0000EB8000D9F804309B00B0FBF3F7FFF7AD
:1011AC000FFF00EB800000EB8000D9F804309B00AF
:1011BC00B0FBF3F3A6FB03235B0908FB13731B01C2
:1011CC003233A6FB0323C3F343131C44AC60BDE8CA
:1011DC00F88300BF003801401F85EB5158B310B5A0
:1011EC00044690F8393013F0FF0F04D1002380F837
:1011FC003830FFF7A5F8022384F839302268D36819
:10120C0023F40053D3602046FFF70AFF22681369CA
:10121C0023F4904313612268536923F02A0353612A
:10122C002268D36843F40053D3600020E0630123A9
:10123C0084F8393010BD0120704700BF0E4B70B5DB
:10124C001E460E4C0025E41AA410A54204D056F8F4
:10125C00253098470135F8E700F016F8084B094C93
:10126C001E46E41AA4100025A54204D056F82530D9
:10127C0098470135F8E770BD1013000810130008EB
:10128C001013000814130008F8B500BFF8BC08BC14
:10129C009E467047F8B500BFF8BC08BC9E46704728
:1012AC00000000000000000001020304060708090A
:1012BC0000000000010203040203040506070809EC
:1012CC000A0B0C0D0E0F101001020000433A2F55A3
:1012DC00736572732F757365722F4368616E674304
:1012EC006869615975616E2F53544D33325F426F8B
:1012FC006F746C6F616465722F5372632F6D6169CB
:04130C006E2E6300DE
:04131000310100089F
:041314000D010008BF
:0413180000A24A04E1
:040000050800016985
:00000001FF
